{
  "_format": "hh-sol-artifact-1",
  "contractName": "AsaliTrace",
  "sourceName": "contracts/AsaliTrace.sol",
  "abi": [
    {
      "anonymous": false,
      "inputs": [
        {
          "indexed": false,
          "internalType": "string",
          "name": "batchId",
          "type": "string"
        },
        {
          "indexed": false,
          "internalType": "string",
          "name": "description",
          "type": "string"
        },
        {
          "indexed": true,
          "internalType": "address",
          "name": "creator",
          "type": "address"
        }
      ],
      "name": "BatchCreated",
      "type": "event"
    },
    {
      "anonymous": false,
      "inputs": [
        {
          "indexed": false,
          "internalType": "string",
          "name": "certId",
          "type": "string"
        },
        {
          "indexed": false,
          "internalType": "string",
          "name": "batchId",
          "type": "string"
        },
        {
          "indexed": false,
          "internalType": "string",
          "name": "issuer",
          "type": "string"
        }
      ],
      "name": "CertificateIssued",
      "type": "event"
    },
    {
      "anonymous": false,
      "inputs": [
        {
          "indexed": false,
          "internalType": "string",
          "name": "testId",
          "type": "string"
        },
        {
          "indexed": false,
          "internalType": "string",
          "name": "batchId",
          "type": "string"
        },
        {
          "indexed": false,
          "internalType": "string",
          "name": "result",
          "type": "string"
        }
      ],
      "name": "LabTestAdded",
      "type": "event"
    },
    {
      "inputs": [
        {
          "internalType": "string",
          "name": "_testId",
          "type": "string"
        },
        {
          "internalType": "string",
          "name": "_batchId",
          "type": "string"
        },
        {
          "internalType": "string",
          "name": "_result",
          "type": "string"
        }
      ],
      "name": "addLabTest",
      "outputs": [],
      "stateMutability": "nonpayable",
      "type": "function"
    },
    {
      "inputs": [
        {
          "internalType": "string",
          "name": "_batchId",
          "type": "string"
        },
        {
          "internalType": "string",
          "name": "_description",
          "type": "string"
        }
      ],
      "name": "createBatch",
      "outputs": [],
      "stateMutability": "nonpayable",
      "type": "function"
    },
    {
      "inputs": [
        {
          "internalType": "string",
          "name": "_batchId",
          "type": "string"
        }
      ],
      "name": "getBatch",
      "outputs": [
        {
          "components": [
            {
              "internalType": "string",
              "name": "batchId",
              "type": "string"
            },
            {
              "internalType": "string",
              "name": "description",
              "type": "string"
            },
            {
              "internalType": "uint256",
              "name": "timestamp",
              "type": "uint256"
            },
            {
              "internalType": "address",
              "name": "createdBy",
              "type": "address"
            }
          ],
          "internalType": "struct AsaliTrace.Batch",
          "name": "",
          "type": "tuple"
        }
      ],
      "stateMutability": "view",
      "type": "function"
    },
    {
      "inputs": [
        {
          "internalType": "string",
          "name": "_certId",
          "type": "string"
        }
      ],
      "name": "getCertificate",
      "outputs": [
        {
          "components": [
            {
              "internalType": "string",
              "name": "certId",
              "type": "string"
            },
            {
              "internalType": "string",
              "name": "batchId",
              "type": "string"
            },
            {
              "internalType": "string",
              "name": "issuer",
              "type": "string"
            },
            {
              "internalType": "uint256",
              "name": "timestamp",
              "type": "uint256"
            }
          ],
          "internalType": "struct AsaliTrace.Certificate",
          "name": "",
          "type": "tuple"
        }
      ],
      "stateMutability": "view",
      "type": "function"
    },
    {
      "inputs": [
        {
          "internalType": "string",
          "name": "_testId",
          "type": "string"
        }
      ],
      "name": "getLabTest",
      "outputs": [
        {
          "components": [
            {
              "internalType": "string",
              "name": "testId",
              "type": "string"
            },
            {
              "internalType": "string",
              "name": "batchId",
              "type": "string"
            },
            {
              "internalType": "string",
              "name": "result",
              "type": "string"
            },
            {
              "internalType": "uint256",
              "name": "timestamp",
              "type": "uint256"
            }
          ],
          "internalType": "struct AsaliTrace.LabTest",
          "name": "",
          "type": "tuple"
        }
      ],
      "stateMutability": "view",
      "type": "function"
    },
    {
      "inputs": [
        {
          "internalType": "string",
          "name": "_certId",
          "type": "string"
        },
        {
          "internalType": "string",
          "name": "_batchId",
          "type": "string"
        },
        {
          "internalType": "string",
          "name": "_issuer",
          "type": "string"
        }
      ],
      "name": "issueCertificate",
      "outputs": [],
      "stateMutability": "nonpayable",
      "type": "function"
    }
  ],
  "bytecode": "0x608060405234801561001057600080fd5b50610f98806100206000396000f3fe608060405234801561001057600080fd5b50600436106100625760003560e01c806392b8f02114610067578063beec1caa1461007c578063ed0f2e751461008f578063f3eca0f3146100b8578063f9ca4274146100cb578063fd206f09146100eb575b600080fd5b61007a610075366004610b35565b6100fe565b005b61007a61008a366004610b99565b61023e565b6100a261009d366004610c21565b6103dd565b6040516100af9190610d0d565b60405180910390f35b61007a6100c6366004610b99565b610661565b6100de6100d9366004610c21565b6107e9565b6040516100af9190610d27565b6100a26100f9366004610c21565b6109f1565b60008260405161010e9190610d8c565b90815260200160405180910390206002015460001461016b5760405162461bcd60e51b8152602060048201526014602482015273426174636820616c72656164792065786973747360601b60448201526064015b60405180910390fd5b60408051608081018252838152602081018390524281830152336060820152905160009061019a908590610d8c565b908152604051908190036020019020815181906101b79082610e31565b50602082015160018201906101cc9082610e31565b506040828101516002830155606090920151600390910180546001600160a01b0319166001600160a01b039092169190911790555133907f14a4819b534290cb8ccfb4060d5410e04c15b9493bccae224d5b9ae9e6f939d0906102329085908590610ef1565b60405180910390a25050565b60008260405161024e9190610d8c565b9081526020016040518091039020600201546000036102a65760405162461bcd60e51b815260206004820152601460248201527310985d18da08191bd95cc81b9bdd08195e1a5cdd60621b6044820152606401610162565b6002836040516102b69190610d8c565b9081526020016040518091039020600301546000146103175760405162461bcd60e51b815260206004820152601a60248201527f436572746966696361746520616c7265616479206578697374730000000000006044820152606401610162565b6040518060800160405280848152602001838152602001828152602001428152506002846040516103489190610d8c565b908152604051908190036020019020815181906103659082610e31565b506020820151600182019061037a9082610e31565b506040820151600282019061038f9082610e31565b50606082015181600301559050507fc9aed1c64acf67836d70d23befa83b398ae1cc3d4dfae56bfe219d38128dd2438383836040516103d093929190610f1f565b60405180910390a1505050565b6104086040518060800160405280606081526020016060815260200160608152602001600081525090565b6002826040516104189190610d8c565b9081526020016040518091039020600301546000036104715760405162461bcd60e51b815260206004820152601560248201527410d95c9d1a599a58d85d19481b9bdd08199bdd5b99605a1b6044820152606401610162565b6002826040516104819190610d8c565b90815260200160405180910390206040518060800160405290816000820180546104aa90610da8565b80601f01602080910402602001604051908101604052809291908181526020018280546104d690610da8565b80156105235780601f106104f857610100808354040283529160200191610523565b820191906000526020600020905b81548152906001019060200180831161050657829003601f168201915b5050505050815260200160018201805461053c90610da8565b80601f016020809104026020016040519081016040528092919081815260200182805461056890610da8565b80156105b55780601f1061058a576101008083540402835291602001916105b5565b820191906000526020600020905b81548152906001019060200180831161059857829003601f168201915b505050505081526020016002820180546105ce90610da8565b80601f01602080910402602001604051908101604052809291908181526020018280546105fa90610da8565b80156106475780601f1061061c57610100808354040283529160200191610647565b820191906000526020600020905b81548152906001019060200180831161062a57829003601f168201915b505050505081526020016003820154815250509050919050565b6000826040516106719190610d8c565b9081526020016040518091039020600201546000036106c95760405162461bcd60e51b815260206004820152601460248201527310985d18da08191bd95cc81b9bdd08195e1a5cdd60621b6044820152606401610162565b6001836040516106d99190610d8c565b9081526020016040518091039020600301546000146107305760405162461bcd60e51b81526020600482015260136024820152725465737420616c72656164792065786973747360681b6044820152606401610162565b6040518060800160405280848152602001838152602001828152602001428152506001846040516107619190610d8c565b9081526040519081900360200190208151819061077e9082610e31565b50602082015160018201906107939082610e31565b50604082015160028201906107a89082610e31565b50606082015181600301559050507f5584054b5f7fbbc789c0d60881894db19b1c0257e46d9685831dab69f54086798383836040516103d093929190610f1f565b61081d604051806080016040528060608152602001606081526020016000815260200160006001600160a01b031681525090565b60008260405161082d9190610d8c565b9081526020016040518091039020600201546000036108805760405162461bcd60e51b815260206004820152600f60248201526e10985d18da081b9bdd08199bdd5b99608a1b6044820152606401610162565b6000826040516108909190610d8c565b90815260200160405180910390206040518060800160405290816000820180546108b990610da8565b80601f01602080910402602001604051908101604052809291908181526020018280546108e590610da8565b80156109325780601f1061090757610100808354040283529160200191610932565b820191906000526020600020905b81548152906001019060200180831161091557829003601f168201915b5050505050815260200160018201805461094b90610da8565b80601f016020809104026020016040519081016040528092919081815260200182805461097790610da8565b80156109c45780601f10610999576101008083540402835291602001916109c4565b820191906000526020600020905b8154815290600101906020018083116109a757829003601f168201915b5050509183525050600282015460208201526003909101546001600160a01b031660409091015292915050565b610a1c6040518060800160405280606081526020016060815260200160608152602001600081525090565b600182604051610a2c9190610d8c565b908152602001604051809103902060030154600003610a825760405162461bcd60e51b8152602060048201526012602482015271131858881d195cdd081b9bdd08199bdd5b9960721b6044820152606401610162565b6001826040516104819190610d8c565b634e487b7160e01b600052604160045260246000fd5b600082601f830112610ab957600080fd5b813567ffffffffffffffff80821115610ad457610ad4610a92565b604051601f8301601f19908116603f01168101908282118183101715610afc57610afc610a92565b81604052838152866020858801011115610b1557600080fd5b836020870160208301376000602085830101528094505050505092915050565b60008060408385031215610b4857600080fd5b823567ffffffffffffffff80821115610b6057600080fd5b610b6c86838701610aa8565b93506020850135915080821115610b8257600080fd5b50610b8f85828601610aa8565b9150509250929050565b600080600060608486031215610bae57600080fd5b833567ffffffffffffffff80821115610bc657600080fd5b610bd287838801610aa8565b94506020860135915080821115610be857600080fd5b610bf487838801610aa8565b93506040860135915080821115610c0a57600080fd5b50610c1786828701610aa8565b9150509250925092565b600060208284031215610c3357600080fd5b813567ffffffffffffffff811115610c4a57600080fd5b610c5684828501610aa8565b949350505050565b60005b83811015610c79578181015183820152602001610c61565b50506000910152565b60008151808452610c9a816020860160208601610c5e565b601f01601f19169290920160200192915050565b6000815160808452610cc36080850182610c82565b905060208301518482036020860152610cdc8282610c82565b91505060408301518482036040860152610cf68282610c82565b915050606083015160608501528091505092915050565b602081526000610d206020830184610cae565b9392505050565b602081526000825160806020840152610d4360a0840182610c82565b90506020840151601f19848303016040850152610d608282610c82565b6040860151606086810191909152909501516001600160a01b0316608090940193909352509192915050565b60008251610d9e818460208701610c5e565b9190910192915050565b600181811c90821680610dbc57607f821691505b602082108103610ddc57634e487b7160e01b600052602260045260246000fd5b50919050565b601f821115610e2c57600081815260208120601f850160051c81016020861015610e095750805b601f850160051c820191505b81811015610e2857828155600101610e15565b5050505b505050565b815167ffffffffffffffff811115610e4b57610e4b610a92565b610e5f81610e598454610da8565b84610de2565b602080601f831160018114610e945760008415610e7c5750858301515b600019600386901b1c1916600185901b178555610e28565b600085815260208120601f198616915b82811015610ec357888601518255948401946001909101908401610ea4565b5085821015610ee15787850151600019600388901b60f8161c191681555b5050505050600190811b01905550565b604081526000610f046040830185610c82565b8281036020840152610f168185610c82565b95945050505050565b606081526000610f326060830186610c82565b8281036020840152610f448186610c82565b90508281036040840152610f588185610c82565b969550505050505056fea26469706673582212206b7757811076961c6b3a3cced6c0dcd8baa36a7a8b040b3c3a5e5581158a859a64736f6c63430008130033",
  "linkReferences": {},
  "deployedLinkReferences": {}
}